:020000040000FA
:100000000C94E0000C9408010C9408010C94BA0ABA
:100010000C94BA0A0C94BA0A0C9408010C940801C6
:100020000C9408010C9408010C9408010C9408012C
:100030000C9408010C9408010C9408010C9408011C
:100040000C9455090C9408010C9423090C94FD0898
:100050000C9408010C9408010C9408010C940801FC
:100060000C949F090C94080100407A10F35A00A0E8
:10007000724E18090010A5D4E80000E87648170071
:1000800000E40B54020000CA9A3B000000E1F505B1
:10009000000080969800000040420F000000A086FB
:1000A00001000000102700000000E803000000002D
:1000B0006400000000000A000000000001000000D1
:1000C00000002C76D888DC674F0823DFC1DFAE59EB
:1000D000E1B1B796E5E3E453C63AE651997696E87E
:1000E000E6C28426EB898C9B62ED407C6FFCEFBC02
:1000F0009C9F40F2BAA56FA5F490055A2AF75C932D
:100100006B6CF9676DC11BFCE0E40D47FEF520E662
:10011000B500D0ED902E0300943577050080841E45
:10012000080000204E0A000000C80C333333330FA0
:10013000986E12831141EF8D2114893BE65516CF3D
:10014000FEE6DB18D1844B381BF77C1D901DA4BB49
:10015000E424203284725E228100C9F124ECA1E5FE
:100160003D2700000000240027002A0000000008AE
:10017000000201000003040700000000000000006E
:1001800000000000230026002900000000002500D8
:1001900028002B00040404040404040402020202E4
:1001A000020203030303030301020408102040803A
:1001B000010204081020010204081020320B68100C
:1001C00011241FBECFEFD8E0DEBFCDBF23E0ACE8E7
:1001D000B1E001C01D92A43DB207E1F711E0A0E03B
:1001E000B1E0E4E6F0E302C005900D92AC38B1074F
:1001F000D9F710E0CFEDD0E004C02197FE010E94B6
:100200002D16CE3DD107C9F70E94170C0C94251866
:100210000C940000AF92BF92CF92DF92EF92FF92C8
:100220000F931F93CF93DF936C017B018B01040F1E
:10023000151FEB015E01AE18BF08C017D10759F0BA
:100240006991D601ED91FC910190F081E02DC601FC
:100250000995892B79F7C501DF91CF911F910F91F6
:10026000FF90EF90DF90CF90BF90AF900895FC018A
:10027000538D448D252F30E0842F90E0821B930B0B
:10028000541710F0CF96089501970895FC01918DB1
:10029000828D981761F0A28DAE0FBF2FB11D5D96B4
:1002A0008C91928D9F5F9F73928F90E008958FEF56
:1002B0009FEF0895FC01918D828D981731F0828D0A
:1002C000E80FF11D858D90E008958FEF9FEF089561
:1002D000FC01918D228D892F90E0805C9F4F821BC5
:1002E00091098F739927089588E992E00E94680127
:1002F00021E0892B09F420E0822F089580E090E02E
:10030000892B29F00E94740181110C94000008953A
:10031000FC01A48DA80FB92FB11DA35ABF4F2C917A
:10032000848D90E001968F739927848FA689B78971
:100330002C93A089B1898C91837080648C93938D68
:10034000848D981306C00288F389E02D80818F7D0B
:1003500080830895EF92FF920F931F93CF93DF93C3
:10036000EC0181E0888F9B8D8C8D98131AC0E889F1
:10037000F989808185FF15C09FB7F894EE89FF89C0
:100380006083E889F98980818370806480839FBF5E
:1003900081E090E0DF91CF911F910F91FF90EF905E
:1003A0000895F62E0B8D10E00F5F1F4F0F7311276E
:1003B000E02E8C8D8E110CC00FB607FCFACFE889A9
:1003C000F989808185FFF5CFCE010E948801F1CFA8
:1003D000EB8DEC0FFD2FF11DE35AFF4FF0829FB71D
:1003E000F8940B8FEA89FB8980818062CFCFCF930D
:1003F000DF93EC01888D8823B9F0AA89BB89E8894D
:10040000F9898C9185FD03C0808186FD0DC00FB6F2
:1004100007FCF7CF8C9185FFF2CF808185FFEDCF70
:10042000CE010E948801E9CFDF91CF91089590E03D
:10043000FC01E459FE4F2491FC01E855FE4F349134
:10044000FC01EC56FE4FE491EE23C9F0222339F073
:10045000233001F1A8F4213019F1223029F1F0E024
:10046000EE0FFF1FE657FE4FA591B4918FB7F8949A
:10047000EC91611126C030953E233C938FBF0895C7
:100480002730A9F02830C9F0243049F78091800046
:100490008F7D03C0809180008F7780938000DFCFB5
:1004A00084B58F7784BDDBCF84B58F7DFBCF809102
:1004B000B0008F778093B000D2CF8091B0008F7D55
:1004C000F9CF3E2BDACFCF93DF9390E0FC01E855D4
:1004D000FE4F24918C569E4FFC0184918823D1F0CD
:1004E00090E0880F991FFC01EE59FE4FA591B49141
:1004F000FC01E657FE4FC591D49161110EC09FB724
:10050000F8948C91E22FE0958E238C932881E2233E
:10051000E8839FBFDF91CF9108958FB7F894EC9156
:10052000E22BEC938FBFF6CF8E50806480937C00DB
:1005300080917A00806480937A0080917A0086FDB1
:10054000FCCF809178009091790008953FB7F8949E
:100550008091620290916302A0916402B091650261
:1005600026B5A89B05C02F3F19F00196A11DB11D0E
:100570003FBFBA2FA92F982F8827BC01CD01620F4A
:10058000711D811D911D42E0660F771F881F991F05
:100590004A95D1F708958F929F92AF92BF92CF92D2
:1005A000DF92EF92FF924B015C010E94A6026B0169
:1005B0007C010E94A6026C197D098E099F09683E84
:1005C000734081059105A8F321E0821A9108A108E2
:1005D000B10888EEC80E83E0D81EE11CF11C81141E
:1005E0009104A104B10429F7FF90EF90DF90CF9020
:1005F000BF90AF909F908F9008951F93CF93DF93FC
:10060000C1E0C093F601882399F1D091B800109110
:10061000BA008091BC008A7B8093BC0060E082E1DC
:100620000E94170260E083E10E94170210923B02D1
:10063000C0933D0210923C0261E082E10E941702E9
:1006400061E083E10E9417028091B9008E7F809360
:10065000B9008091B9008D7F8093B90088E48093C0
:10066000B80085E48093BC001093BA00D093B80022
:10067000DF91CF911F91089520911702260F332704
:10068000331F21323105ECF420913B02FC0190E054
:1006900080E0243069F082E00895A0911702219152
:1006A000AC0149505E4FA40FB52FB11D2C9301969C
:1006B000861798F380911702680F6093170280E005
:1006C000089581E0089508958FEF9FEF08958FEFCB
:1006D0009FEF08958091F00190E0919581959109A7
:1006E0000895CF92DF92EF92FF920F931F93CF93D3
:1006F000DF937C01CB018A012091EF01222389F055
:10070000EB016B01C40ED51ECC15DD0569F06991B6
:10071000D701ED91FC910190F081E02DC701099581
:10072000F3CF642F0E943C03C801DF91CF911F914A
:100730000F91FF90EF90DF90CF900895CF93DF93CC
:100740001F92CDB7DEB769832091EF012223F9F024
:100750002091EE01203258F021E030E0FC0133839B
:10076000228390E080E00F90DF91CF9108958091F7
:10077000ED01E82FF0E0E353FE4F998190838F5F06
:100780008093ED018093EE0181E090E0ECCF61E099
:10079000CE0101960E943C03F7CFCF92DF92EF92F9
:1007A000FF920F931F93CF93DF93FC01C48121E04D
:1007B0002093EF01C093CC011092ED011092EE0155
:1007C0008385682B85E393E00E949E03D091EE0120
:1007D000D13208F092C00E94A6026B017C01809188
:1007E0003B02811165C082E080933B0281E08093EF
:1007F0003D028FEF80933A0210925F02D0935E0227
:10080000ADECB1E0EEE3F2E080E0D81385C01092E9
:10081000600280916002CC0FC82BC093600280916F
:100820003C02813009F07CC010923C020E94A6027A
:100830006B017C01809160028093BB008091F2018A
:100840009091F301A091F401B091F501892B8A2BCD
:100850008B2B99F00E94A6020091F2011091F301F6
:100860002091F4013091F5016C197D098E099F09E1
:100870000617170728073907E0F18091BC0083FDB0
:10088000D9CF85EC8093BC000E94A6026B017C014D
:1008900080913B02823009F445C080913A028F3F3B
:1008A00061F180913A02803241F180913A0225C093
:1008B0008091F2019091F301A091F401B091F501C2
:1008C000892B8A2B8B2B09F48ACF0E94A6020091D8
:1008D000F2011091F3012091F4013091F5016C19AE
:1008E0007D098E099F09061717072807390708F0A1
:1008F00076CF8091F1010E94FD021092ED011092DD
:10090000EE011092EF01DF91CF911F910F91FF90B7
:10091000EF90DF90CF9008959D9191938F5F75CF69
:1009200085EEB0CF8091F2019091F301A091F40196
:10093000B091F501892B8A2B8B2B09F4A9CF0E944A
:10094000A6020091F2011091F3012091F40130917F
:10095000F5016C197D098E099F09061717072807ED
:10096000390708F095CFC5CF0895209168023091DE
:1009700069022817390771F4909166028091670225
:10098000981741F0E0916602F0E0E457FE4F808155
:1009900090E008958FEF9FEF0895EF92FF920F93ED
:1009A0001F93CF93DF93DC015C96ED90FC905D97F5
:1009B000E114F10479F481E090E013969C938E9316
:1009C000129790E080E0DF91CF911F910F91FF90FF
:1009D000EF9008955196ED91FC91529750968C911D
:1009E0005097982F90950FB75E962C915E97122F87
:1009F000127021FD6095F8942081112319F1282BA4
:100A00002083E7012197F1F728E0462F50E030815D
:100A100060FF1AC0382B3083E7012197F1F7BA0144
:100A200075956795215089F7112381F0808189237D
:100A300080830FBF5C968D919C910197F1F781E0C7
:100A400090E0C1CF2923DCCF3923E5CF9081892BDA
:100A5000EFCF20916802309169022817390771F4AD
:100A6000809167022091660290E0805C9F4F821B1C
:100A7000910960E470E00E94E315089590E080E041
:100A80000895209168023091690228173907B9F456
:100A90009091660280916702981789F0E091660252
:100AA000F0E0E457FE4F80812091660230E02F5F36
:100AB0003F4F2F7333272093660290E008958FEF06
:100AC0009FEF089590E080E008958F929F92AF92FB
:100AD000BF92CF92DF92EF92FF920F931F93CF932B
:100AE000DF93EC01FA84FF2009F4AEC08E819F8170
:100AF000681B790B79836883072E000C880B990B90
:100B00000E9415139B01AC016EA17FA188A599A538
:100B10000E946A146EA37FA388A799A76881798130
:100B2000072E000C880B990B0E9415139B01AC013A
:100B30000E9474132AA53BA54CA55DA50E946A14CA
:100B40006AA77BA78CA79DA70C891D892C853D854D
:100B50000217130709F066C06EA77FA788AB99AB91
:100B6000FF2009F459C0CE84DF84E888F988A70102
:100B7000960160E070E080E89FE30E9469142AA17A
:100B80003BA14CA15DA10E9474134B015C012EA1FD
:100B90003FA148A559A5C701B6010E9474139B0146
:100BA000AC01C501B4010E946A146B017C01CAA2A8
:100BB000DBA2ECA2FDA2B801110F880B990B0E94D9
:100BC00015139B01AC01C701B6010E94D6146B013D
:100BD0007C0120E030E0A9010E947E1520E030E099
:100BE00040E05FE387FD33C0C701B6010E946A148D
:100BF0000E9448157B8B6A8B8E819F81680F791FBD
:100C00007F836E831EA21FA218A619A68B85882338
:100C100019F0188681E089871AA61BA61CA61DA6B6
:100C20001D8A1C8A8C899D8901969D8B8C8BDF91F6
:100C3000CF911F910F91FF90EF90DF90CF90BF90D9
:100C4000AF909F908F9008957983688367CFC70195
:100C5000B6010E946914CCCF0F931F93CF938C01E0
:100C6000C62F0E94CD036C2F6460C8010E94CD0383
:100C70006C2F6B7FC8010E94CD0383EC90E001973D
:100C8000F1F7CF911F910F9108950F931F93CF9379
:100C9000DF938C01D62FC42F607F642B0E942C061B
:100CA00080E1D89FB00111246C2BC801DF91CF9156
:100CB0001F910F910C942C06CF93DF93CDB7DEB725
:100CC00028970FB6F894DEBF0FBECDBF98E0E6E0E0
:100CD000F1E0DE01119601900D929A95E1F7909165
:100CE0004903981708F48FEF90E0880F991F21E0CF
:100CF00030E02C0F3D1F820F931FFC016081606864
:100D000040E081E493E028960FB6F894DEBF0FBE72
:100D1000CDBFDF91CF910C94450641E00E9445067E
:100D200081E090E00895FB0101900020E9F7319700
:100D3000AF01461B570BDC01ED91FC910280F38162
:100D4000E02D09948F929F92AF92BF92EF92FF9203
:100D50000F931F93CF93DF93CDB7DEB7A1970FB655
:100D6000F894DEBF0FBECDBF7C01FA01CB0119A202
:100D7000223008F42AE08E010F5D1F4F822E912C45
:100D8000B12CA12CBF01A50194010E94F715F90116
:100D9000CA016A300CF5605DD8016E938D01232B7A
:100DA000242B252B79F790E080E0109721F0BD01EE
:100DB000C7010E949306A1960FB6F894DEBF0FBE3E
:100DC000CDBFDF91CF911F910F91FF90EF90BF901A
:100DD000AF909F908F900895695CDECF2F923F92E5
:100DE0004F925F926F927F928F929F92AF92BF923B
:100DF000CF92DF92EF92FF921F93CF93DF93EC019C
:100E00006A017B01722EAB019601CB01B6010E94F3
:100E1000C91560E571E0811126C046015701E894CB
:100E2000B7F82FEF3FEF4FE75FE7C501B4010E942E
:100E3000C91581110CC02FEF3FEF4FE75FE7C501E8
:100E4000B4010E940E1364E571E0181664F02FEFF0
:100E50003FEF4FE75FE4C701B6010E947E15181609
:100E6000B4F468E571E0CE01DF91CF911F91FF905E
:100E7000EF90DF90CF90BF90AF909F908F907F903A
:100E80006F905F904F903F902F900C9493062FEFB0
:100E90003FEF4FE75FECC701B6010E940E1387FDDD
:100EA000E0CF20E030E0A901C701B6010E940E1397
:100EB000312C212C87FF0DC0E881F9810190F08150
:100EC000E02D6DE2CE0109951C01F7FAF094F7F8D8
:100ED000F09410E060E070E080E09FE3711641F074
:100EE00020E030E040E251E40E94D6141F5FF6CFCC
:100EF000A70196010E946A142B013C010E944F1524
:100F00004B015C012AE0BC01A401CE010E94A206B3
:100F10007C01E20CF31C1123E1F1C501B4010E9434
:100F200013139B01AC01C301B2010E9469144B0170
:100F30005C01E881F9810190F081E02D6EE2CE0143
:100F40000995E80EF91E115020F120E030E040E252
:100F500051E4C501B4010E9474132B013C010E94AD
:100F60004F154B01B12CA12C2AE0B501A401CE01F3
:100F70000E94A206E80EF91EC501B4010E941313D7
:100F80009B01AC01C301B2010E9469144B015C01D9
:100F9000DACFC701DF91CF911F91FF90EF90DF90E3
:100FA000CF90BF90AF909F908F907F906F905F9009
:100FB0004F903F902F900895CF93DF93AB01BC01EA
:100FC00022E088E992E00E94EE06EC016CE571E017
:100FD00088E992E00E9493068C0F9D1FDF91CF91CC
:100FE0000895CF93DF93EC0188819981009711F0E8
:100FF0000E94CF16198218821D821C821B821A82BF
:10100000DF91CF910895FC0180819181009711F0CB
:101010000C94CF1608950F931F93CF93DF93EC0199
:1010200088819981009759F02A813B8126173707DB
:1010300030F081E0DF91CF911F910F9108958B01E6
:101040006F5F7F4F0E945817009759F099838883EC
:101050001B830A832C813D81232B59F7FC011082CD
:10106000E8CF80E0E7CFEF92FF920F931F93CF93EB
:10107000DF93EC01FB01E080F180E114F10411F158
:101080000481158101151105A9F08C819D81080F3E
:10109000191FB801CE010E940B08882399F02881FE
:1010A00039818C819D81B701820F931F0E941E1888
:1010B0001D830C83CE01DF91CF911F910F91FF9083
:1010C000EF900895CE010E94F107F4CFEF92FF92C6
:1010D0000F931F93CF93DF93EC017B018A01BA0139
:1010E0000E940B0881110BC0CE010E94F107CE01B6
:1010F000DF91CF911F910F91FF90EF9008951D8385
:101100000C83B701888199810E941E18F0CFEF925D
:10111000FF920F931F93CF93DF93CDB7DEB7A197C5
:101120000FB6F894DEBF0FBECDBF7C01CB01BA0174
:10113000F7011182108213821282158214828E01AD
:101140000F5F1F4F22E044E00E9484100097C9F017
:10115000FC0101900020E9F73197AF01481B590BC2
:10116000BC01C7010E946608A1960FB6F894DEBFC5
:101170000FBECDBFDF91CF911F910F91FF90EF90E8
:101180000895C7010E94F107EFCF85ED8093BC0061
:101190008091F2019091F301A091F401B091F501D9
:1011A0000796A11DB11D23E0B695A7959795879544
:1011B0002A95D1F72091BC0024FD03C010923B0278
:1011C00008954091F2015091F3016091F401709102
:1011D000F501452B462B472B69F30097A105B10577
:1011E00041F025E32A95F1F700000197A109B10923
:1011F000E1CF8091F1010C94FD021F920F920FB686
:101200000F9211242F933F934F935F936F937F938C
:101210008F939F93AF93BF93EF93FF9388E992E0EF
:101220000E948801FF91EF91BF91AF919F918F91A3
:101230007F916F915F914F913F912F910F900FBED2
:101240000F901F9018951F920F920FB60F921124B6
:101250002F938F939F93EF93FF93E091A802F091C8
:10126000A9028081E091AE02F091AF0282FD1BC025
:1012700090818091B1028F5F8F732091B2028217AB
:1012800041F0E091B102F0E0E856FD4F958F809378
:10129000B102FF91EF919F918F912F910F900FBE0F
:1012A0000F901F9018958081F4CF1F920F920FB668
:1012B0000F9211242F933F938F939F93AF93BF93DC
:1012C00080916A0290916B02A0916C02B0916D02C4
:1012D0003091610223E0230F2D3758F50196A11DAF
:1012E000B11D2093610280936A0290936B02A093D8
:1012F0006C02B0936D028091620290916302A091A2
:101300006402B09165020196A11DB11D8093620235
:1013100090936302A0936402B0936502BF91AF9172
:101320009F918F913F912F910F900FBE0F901F9023
:10133000189526E8230F0296A11DB11DD2CF1F924A
:101340000F920FB60F9211242F933F934F935F93F9
:101350006F937F938F939F93AF93BF93EF93FF937D
:101360008091B900887F803609F44AC0F0F5883250
:1013700009F4A5C018F5803109F499C0B8F48823A0
:1013800009F4F5C0883009F492C0FF91EF91BF9144
:10139000AF919F918F917F916F915F914F913F910D
:1013A0002F910F900FBE0F901F901895883109F460
:1013B00086C0803251F780933A0214C0803409F419
:1013C0009BC040F48033B9F38833F9F680933A0236
:1013D00085ECAEC0803509F483C0883509F494C02B
:1013E000883499F60E94C508D0CF883909F48AC09C
:1013F00038F5883729F050F4883611F0803729F60F
:1014000083E080933B021092390255C0883809F47A
:1014100079C0803919F0803809F0B7CF809139024E
:10142000803208F06FC0E091390281E08E0F809326
:1014300039028091BB00F0E0E75EFD4F80833BC046
:10144000803B39F0D0F4803A09F477C0883A09F04B
:101450009CCF84E080933B021092180210921702F6
:10146000F0E0E0E009958091170281110FC081E062
:10147000809317021092F70109C0803C09F4A8CFAD
:10148000883C09F4A5CF883B09F07FCFE091180292
:1014900081E08E0F80931802F0E0E950FE4F8081CA
:1014A0008093BB00909118028091170229C080910F
:1014B00060028093BB0085EC8093BC0066CF909166
:1014C0005F0280915E02981758F5E0915F0281E01B
:1014D0008E0F80935F02F0E0E25CFD4F8081E9CFE8
:1014E000E0915F0281E08E0F80935F028091BB00EC
:1014F000F0E0E25CFD4F808390915F0280915E029C
:101500009817C8F285E8D8CFE0915F0281E08E0F8E
:1015100080935F028091BB00F0E0E25CFD4F80832E
:1015200080913D0281115ECF81E080933C0284EA8C
:101530008093BC0010923B0228CF85EC8093BC00C6
:1015400010923B0280913902803230F4E0913902EE
:10155000F0E0E75EFD4F10826091390270E089E1B2
:1015600092E0F0E0E0E00995109239020ECF10927F
:101570003A0238CF1F920F920FB60F9211242F9379
:101580003F934F935F936F937F938F939F93AF930B
:10159000BF93EF93FF93E0916802F0916902309757
:1015A00049F0A685B7858585968D91FF14C09C91DD
:1015B0008923A1F4FF91EF91BF91AF919F918F91FA
:1015C0007F916F915F914F913F912F910F900FBE3F
:1015D0000F901F9018959C91892361F7A389B48976
:1015E0009C918589809589238C9386899789019719
:1015F000F1F7608D718DA685B785558538E020E0BF
:10160000CB010197F1F7822F90E095958795282FD0
:101610004C91452309F02068315091F7868D81FD6A
:1016200020958091670290E001968F739927309101
:101630006602381799F0A0916702B0E0A457BE4F38
:101640002C9380936702828D938D0197F1F7A38984
:10165000B4898C919589892B8C93ACCF868D8160D0
:10166000868FF1CF10929B0210929A0288EE93E03F
:10167000A0E0B0E080939C0290939D02A0939E0214
:10168000B0939F0222E131E03093990220939802B7
:1016900025EC30E03093A5022093A40224EC30E046
:1016A0003093A7022093A60220EC30E03093A902E9
:1016B0002093A80221EC30E03093AB022093AA02E1
:1016C00022EC30E03093AD022093AC0226EC30E007
:1016D0003093AF022093AE021092B1021092B20288
:1016E0001092B3021092B402109238031092370392
:1016F0008093390390933A03A0933B03B0933C0348
:1017000024E231E0309336032093350343E353E37F
:1017100063E37FE34093AC035093AD036093AE0368
:101720007093AF0340937A0350937B0360937C03E1
:1017300070937D031092500310924F0380935103D6
:1017400090935203A0935303B093540382E491E027
:1017500090934E0380934D031092640310926303A1
:10176000109266031092650310926803109267034B
:1017700010926A031092690360916B036E7F6D7F14
:1017800060936B036695617081E0682783E00E9437
:10179000170261E083E00E946302EBEAF1E0E4916A
:1017A000E0935D03E7E9F1E0E491F0E0EE0FFF1F65
:1017B000E657FE4F8591949190935F0380935E036B
:1017C00060E082E00E94630280916B0381FD04C0AF
:1017D00061E082E00E94170282E080935903EAEA06
:1017E000F1E0E491E0935A03E6E9F1E0E491F0E0FE
:1017F000EE0FFF1FE058FE4F2591349130935C03AC
:1018000020935B03109244031092430326E331E0DC
:10181000309342032093410397E29093450390E174
:1018200090934A0380934B0310924C030895CF93F7
:10183000DF93CDB7DEB7AA970FB6F894DEBF0FBE21
:10184000CDBF789484B5826084BD84B5816084BD49
:1018500085B5826085BD85B5816085BD80916E004E
:10186000816080936E00109281008091810082607F
:1018700080938100809181008160809381008091BC
:1018800080008160809380008091B10084608093AB
:10189000B1008091B00081608093B00080917A00A7
:1018A000846080937A0080917A00826080937A00CD
:1018B00080917A00816080937A0080917A008068BC
:1018C00080937A001092C100E091A802F091A902E1
:1018D00022E0F22EF082E091A402F091A5021082A3
:1018E000E091A602F091A7028FEC80831092B002E3
:1018F000E091AC02F091AD0286E08083E091AA0213
:10190000F091AB02808180618083E091AA02F09126
:10191000AB02808188608083E091AA02F091AB02E3
:10192000808180688083E091AA02F091AB0280817F
:101930008F7D808360E08EE00E94630260E08FE034
:101940000E94630280914603886080934603F09270
:10195000490362E370E080E090E00E94CB02609176
:101960004C0381E493E00E94CD0368EE73E080E0D5
:1019700090E00E94CB0260E381E493E00E942C0699
:101980000BE416E4C8010197F1F760E381E493E00A
:101990000E942C06C8010197F1F760E381E493E00F
:1019A0000E942C0683E592E00197F1F760E281E462
:1019B00093E00E942C0660914603606240E081E45F
:1019C00093E00E94450684E08093470340E06CE08A
:1019D00081E493E00E94450640E061E081E493E009
:1019E0000E9445060BE31FE1C8010197F1F7F09251
:1019F000480340E066E081E493E00E94450640E051
:101A000062E081E493E00E944506C8010197F1F786
:101A100088E080934C0360E081E493E00E94CD0372
:101A20001092680310926703109266031092650388
:101A300010926403109263038DE991E090936A031E
:101A40008093690390915903963108F047C02DEBBC
:101A500030E030936403209363032BE931E030934B
:101A60006603209365032CE231E0309368032093F2
:101A700067032091680084E0983048F031E09E30A0
:101A800008F430E081E001C0880F3A95EAF7822B34
:101A9000809368002DE630E0983050F02BE630E07F
:101AA0009E3030F02CE630E0963110F030E020E04F
:101AB0003093610320936003292F30E0983008F0C1
:101AC000FAC281E001C0880F9A95EAF78093620319
:101AD0008091690390916A030197F1F78091670300
:101AE00090916803892B49F1E0916802F0916902B5
:101AF00023E0ED34F20709F1309739F0A389B48976
:101B00009C918589809589238C9380916B038E7F2E
:101B100080936B0310926702109266028DE493E04B
:101B20009093690280936802E0916003F0916103F1
:101B3000808190916203892B80831092A903E8E24F
:101B4000F0E0F093AB03E093AA0381E08093A80355
:101B500020E032E03093A5032093A40340E050E05E
:101B600060E275E34093B8035093B9036093BA03FE
:101B70007093BB031092C8031092C9031092CA035A
:101B80001092CB031092B3031092B2038093A6037A
:101B90001092A70310927703F0937903E0937803F0
:101BA00080937603309373032093720340938603EC
:101BB0005093870360938803709389031092960370
:101BC0001092970310929803109299031092810338
:101BD0001092800380937403109275030E94A602F2
:101BE00068517C4F8F4F9F4F60937A0270937B02B6
:101BF00080937C0290937D028E010F5F1F4F7E01C8
:101C000043E1E40EF11C9BE3C92E9FE1D92E80E055
:101C1000A82E80E0B82E8EE00E9494022091A603A8
:101C2000222329F0BC018EE993E00E9465058FE034
:101C30000E94940220917403222329F0BC018CE6B7
:101C400093E00E946505809196029091970201961B
:101C50009093970280939602843691050CF40AC102
:101C60002091B8033091B9034091BA035091BB035E
:101C70006091CC037091CD038091CE039091CF03FE
:101C80000E9474136093BC037093BD038093BE03E2
:101C90009093BF030E948915AB01BC014093A00340
:101CA0005093A1036093A2037093A3031092A70320
:101CB0004093920250939302609394027093950222
:101CC00022E088E992E00E94EE062091860330919E
:101CD0008703409188035091890360919A03709122
:101CE0009B0380919C0390919D030E9474136093C9
:101CF0008A0370938B0380938C0390938D030E94CF
:101D0000891560936E0370936F03809370039093B3
:101D100071031092750320E030E040E251E40E942C
:101D2000741360938E0270938F028093900290934D
:101D300091026FE571E088E992E00E94930660915C
:101D40008E0270918F0280919002909191020E9478
:101D5000DC0720918E0230918F02409190025091C9
:101D600091026091920270919302809194029091FD
:101D700095020E94741360938A0270938B02809381
:101D80008C0290938D020E94DC0740E061E081E4C8
:101D900093E00E944506C6010197F1F780E00E949A
:101DA0005C0663E671E081E493E00E94930681E0C3
:101DB0000E945C0640918A0250918B0260918C02D5
:101DC00070918D0222E081E493E00E94EE06209162
:101DD0008A0230918B0240918C0250918D02609169
:101DE00086027091870280918802909189020E94F8
:101DF0006A1460938602709387028093880290939E
:101E000089022091960230919702283E334094F146
:101E100020E030E040E251E40E94D614209182029A
:101E20003091830240918402509185020E946A148D
:101E30006093820270938302809384029093850260
:101E400020E03AEB4BE55AE40E94D61460937E0200
:101E500070937F0280938002909381021092860299
:101E600010928702109288021092890210929702B3
:101E7000109296020E94A60240907A0250907B0235
:101E800060907C0270907D0264157505860597054B
:101E900088F3D301C20188519C4FAF4FBF4F80934D
:101EA0007A0290937B02A0937C02B0937D022FB7BD
:101EB000F89480916A0290916B02A0916C02B091AB
:101EC0006D022FBF8093760290937702A0937802E1
:101ED000B093790240917202509173026091740242
:101EE00070917502841B950BA60BB70B8838934134
:101EF000A105B10508F4D3C020E030E040EE50E485
:101F000060917E0270917F028091800290918102A7
:101F10000E94741360936E0270936F02809370023C
:101F2000909371021EA21DA218A61FA21AA619A69E
:101F30004AE0B80182ED94E00E94A210F8010190FD
:101F40000020E9F73197AF01401B510BB801CE01DA
:101F500085960E94660840918202509183026091AA
:101F6000840270918502CE014F960E9487084091AD
:101F70006E0250916F026091700270917102CE01F9
:101F800049960E9487081A8219821C821B821E822F
:101F90001D826DA17EA16115710529F049A55AA583
:101FA000C8010E946608BE01615E7F4FC8010E94A1
:101FB0003308BE01675E7F4F0E9433081C8A1B8A6C
:101FC0001E8A1D8A188E1F8A8E159F0559F0FC01E6
:101FD000608171816115710529F044815581C701C6
:101FE0000E946608C8010E940308609182027091F5
:101FF000830280918402909185020E94DC0769E649
:1020000071E08DE493E00E9493066CE571E08DE44D
:1020100093E00E94930663E771E08DE493E00E94F1
:1020200093066CE571E08DE493E00E9493064F897E
:10203000588D6B897C898DE493E00E940A016CE5E0
:1020400071E08DE493E00E9493066AE18DE493E0F1
:102050000E94CD046CE571E08DE493E00E9493064C
:102060008091760290917702A0917802B0917902E6
:102070008093720290937302A0937402B0937502DE
:10208000C7010E940308CE0149960E940308CE01B1
:102090004F960E940308CE0185960E940308A11462
:1020A000B10409F4B8CD0E947401882309F4AFCDBE
:1020B0000E940000A8CD9E3040F42850310981E0F4
:1020C00001C0880F2A95EAF701CD2E503109F7CFCC
:1020D00082E491E090934E0380934D0380916802D7
:1020E000909169028D54934071F4E0916003F091F6
:1020F000610390818091620380958923808310928F
:102100006902109268020895EF920F931F93CF9384
:10211000DF93E80134E047FD34E1042E000C550B59
:1021200057FF03C0519541955109E32E022F242FEB
:10213000AE010E94C710CE01DF91CF911F910F9188
:10214000EF900895BB274A3031F4992322F4BDE281
:10215000909581959F4F0C94AE10BB27FB0155279E
:10216000AA27880F991FAA1FA41710F0A41B8395F4
:102170005051B9F7A05DAA3308F0A95DA19300976B
:1021800079F7B111B1931192CB010C94FE12A9E031
:10219000B0E0EDECF0E10C9438146A01F22EB02EB0
:1021A000102FFBE3AF2EA01608F41BE31F5F012FD7
:1021B00027E0AE014F5F5F4F0E942612BC0189816C
:1021C000982F9970913009F43FC09BE2E1FC04C064
:1021D0009E2D9170E0FC3AC05E2D5071E82FE870A2
:1021E00083FF46C084E0911101C083E0EF2DE81B1E
:1021F0008F1508F0E0E0D6018E2F20E2552351F133
:10220000992329F0D6019C93C60101966C01960191
:102210002D5F3F4FE2FE24C08EE4D6018C9391E403
:1022200011969C93119712968C93D9018E2F90E260
:1022300081111BC0E20FF32FF11D10828EEF9FEF73
:102240002996ECE00C9454149DE2C6CF90E2C4CFE2
:102250002D9381508111FCCFCE0ED11CE0E0D0CF68
:102260008EE6D6018C9391E6DBCF9D938150E0CF33
:10227000482F447082FF3DC084E0911101C083E08B
:102280008F1510F4EF2DE81BD6018E2F20E2552379
:1022900009F1992329F0D6019C93C60101966C019E
:1022A00096012D5F3F4FE2FE1BC089E4D6018C935F
:1022B0008EE411968C93119786E412968C93D90133
:1022C0008E2F90E2882309F4B5CF9D938150FACFE9
:1022D0002D9381508111FCCFCE0ED11CE0E0D9CFDF
:1022E00089E6D6018C938EE611968C93119786E63B
:1022F000E4CF9B0177FF02C030E020E0A1E0B0E036
:10230000911102C0B0E0A0E0F9013196AE0FBF1FFD
:102310008B2C912CBB2009F461C05401EFEFAE1A55
:10232000BE0AAA0DBB1DFA161B0619F014F04F2D9C
:102330004A1B511188C0E3FC59C07601A42FB0E2BA
:10234000A1114FC0C40ED11C992309F45BC040E019
:10235000D6011196F60190836D01552309F448C00A
:10236000012F060F9A81582F507184FF03C09133BB
:1023700009F4015010160CF047C0093008F008E0CD
:10238000EEE2FE2E5B01A01AB108850191948194C2
:1023900091082F3F320729F4D601FC92F6013196BD
:1023A0006F016217730794F1021713077CF5DB01C5
:1023B000A21BB30BAA24A394B12CAC0EBD1EAA0D74
:1023C000BB1D11968C9121503109D601119628150B
:1023D0003905F4F0F60180836D01DBCFB12CA12C1F
:1023E000A0CFF701B1937F01A150AACF9111B0CF37
:1023F000D601942F50E302C05D9391509111FCCF10
:10240000C40ED11C40E0ACCF01E0BACF80E3DBCFFB
:102410006217730731F4963388F4953311F455231A
:1024200069F0F6018083FD01842F90E2811108C0DC
:10243000A40FB11D1C9290E080E002CF81E3F1CFA8
:1024400091938150F3CF911183CF8ACF283008F038
:1024500027E03327DA01990F311D87FD916000963F
:102460006105710539F432602E5F3D9330E32A95A2
:10247000E1F708959F3F30F080387105610509F05C
:102480003C5F3C5F3D93913008F08068911DDF9385
:10249000CF931F930F93FF92EF92192F987F9695EA
:1024A000E92F96959695E90FFF27EE53FF4F992751
:1024B0003327EE24FF24A701E70105900894079431
:1024C00028F4360FE71EF81E491F511D660F771FAF
:1024D000881F991F0694A1F70590079428F4E70E2A
:1024E000F81E491F561FC11D770F881F991F661FB1
:1024F0000694A1F70590079428F4F80E491F561F7B
:10250000C71FD11D880F991F661F771F0694A1F75B
:102510000590079420F4490F561FC71FD81F990F25
:10252000661F771F881F0694A9F78491109517706E
:1025300041F0D695C79557954795F794E7941A9526
:10254000C1F7E8E6F0E06894159015913591659132
:10255000959105907FE27395E118F10A430B560BB4
:10256000C90BD009C0F7E10CF11E431F561FC91F4C
:10257000D01D7EF4703311F48A95E6CFE8940150B3
:1025800030F0080F0AF40027021708F4202F2395D3
:10259000022F7A3328F079E37D932A95E9F710C06A
:1025A0007D932A9589F606949795679537951795A3
:1025B0001794E118F10A430B560BC90BD00998F098
:1025C00023957E9173957A3308F070E37C93201302
:1025D000B8F77E9170617D9330F0839571E37D93C0
:1025E00070E32A95E1F71124EF90FF900F911F916E
:1025F000CF91DF91992787FD90950895DC01FC012B
:10260000672F71917723E1F7329704C07C916D9326
:1026100070836291AE17BF07C8F308950E945013EC
:1026200008F481E00895E89409C097FB3EF4909582
:102630008095709561957F4F8F4F9F4F9923A9F09B
:10264000F92F96E9BB279395F6958795779567952A
:10265000B795F111F8CFFAF4BB0F11F460FF1BC06E
:102660006F5F7F4F8F4F9F4F16C0882311F096E901
:1026700011C0772321F09EE8872F762F05C06623AF
:1026800071F096E8862F70E060E02AF09A95660F68
:10269000771F881FDAF7880F9695879597F9089521
:1026A000990F0008550FAA0BE0E8FEEF1616170663
:1026B000E807F907C0F012161306E407F50798F0CB
:1026C000621B730B840B950B39F40A2661F0232BE4
:1026D000242B252B21F408950A2609F4A140A69560
:1026E0008FEF811D811D08950E9487130C94F813AC
:1026F0000E94EA1338F00E94F11320F0952311F0A4
:102700000C94E1130C94E71311240C942C140E94E4
:10271000091470F3959FC1F3950F50E0551F629F08
:10272000F001729FBB27F00DB11D639FAA27F00D2A
:10273000B11DAA1F649F6627B00DA11D661F829F51
:102740002227B00DA11D621F739FB00DA11D621F36
:10275000839FA00D611D221F749F3327A00D611D53
:10276000231F849F600D211D822F762F6A2F112435
:102770009F5750409AF0F1F088234AF0EE0FFF1F68
:10278000BB1F661F771F881F91505040A9F79E3FBF
:10279000510580F00C94E1130C942C145F3FE4F38A
:1027A000983ED4F3869577956795B795F795E79515
:1027B0009F5FC1F7FE2B880F911D9695879597F91E
:1027C000089597F99F6780E870E060E008959FEFB3
:1027D00080EC089500240A941616170618060906B8
:1027E000089500240A941216130614060506089587
:1027F000092E0394000C11F4882352F0BB0F40F40F
:10280000BF2B11F460FF04C06F5F7F4F8F4F9F4F4E
:10281000089557FD9058440F551F59F05F3F71F0D0
:102820004795880F97FB991F61F09F3F79F0879537
:102830000895121613061406551FF2CF4695F1DFC0
:1028400008C0161617061806991FF1CF8695710550
:10285000610508940895E894BB2766277727CB0184
:1028600097F908952F923F924F925F926F927F92C5
:102870008F929F92AF92BF92CF92DF92EF92FF9290
:102880000F931F93CF93DF93CDB7DEB7CA1BDB0B3C
:102890000FB6F894DEBF0FBECDBF09942A883988E1
:1028A00048885F846E847D848C849B84AA84B984E8
:1028B000C884DF80EE80FD800C811B81AA81B981F4
:1028C000CE0FD11D0FB6F894DEBF0FBECDBFED0108
:1028D00008955058BB27AA270E9481140C94F8131E
:1028E0000E94EA1338F00E94F11320F039F49F3F60
:1028F00019F426F40C94E7130EF4E095E7FB0C941E
:10290000E113E92F0E94091458F3BA1762077307FD
:102910008407950720F079F4A6F50C942B140EF497
:10292000E0950B2EBA2FA02D0B01B90190010C01DF
:10293000CA01A0011124FF27591B99F0593F50F4F7
:10294000503E68F11A16F040A22F232F342F44274F
:10295000585FF3CF469537952795A795F040539547
:10296000C9F77EF41F16BA0B620B730B840BBAF017
:102970009150A1F0FF0FBB1F661F771F881FC2F782
:102980000EC0BA0F621F731F841F48F48795779596
:102990006795B795F7959E3F08F0B0CF9395880F50
:1029A00008F09927EE0F9795879508950E94EA14ED
:1029B0000C94F8130E94F11358F00E94EA1340F0AF
:1029C00029F45F3F29F00C94E11351110C942C145D
:1029D0000C94E7130E94091468F39923B1F355236B
:1029E00091F3951B550BBB27AA2762177307840722
:1029F00038F09F5F5F4F220F331F441FAA1FA9F3B8
:102A000035D00E2E3AF0E0E832D091505040E695A5
:102A1000001CCAF72BD0FE2F29D0660F771F881F06
:102A2000BB1F261737074807AB07B0E809F0BB0BF9
:102A3000802DBF01FF2793585F4F3AF09E3F51050D
:102A400078F00C94E1130C942C145F3FE4F3983E5F
:102A5000D4F3869577956795B795F7959F5FC9F7F6
:102A6000880F911D9695879597F90895E1E0660F77
:102A7000771F881FBB1F621773078407BA0720F0F0
:102A8000621B730B840BBA0BEE1F88F7E095089559
:102A90000E944F156894B1110C942C1408950E9453
:102AA000111488F09F5798F0B92F9927B751B0F0BB
:102AB000E1F0660F771F881F991F1AF0BA95C9F7C2
:102AC00014C0B13091F00E942B14B1E008950C9421
:102AD0002B14672F782F8827B85F39F0B93FCCF3D4
:102AE000869577956795B395D9F73EF4909580953F
:102AF000709561957F4F8F4F9F4F08950E9450139F
:102B000008F48FEF089519F416F40C94E7130C945D
:102B1000CE150E941114B8F39923C9F3B6F39F5749
:102B2000550B87FF0E94DC150024A0E640EA9001C7
:102B300080585695979528F4805C660F771F881FFC
:102B400020F026173707480730F4621B730B840BFD
:102B5000202931294A2BA695179407942025312541
:102B60004A2758F7660F771F881F20F02617370768
:102B7000480730F4620B730B840B200D311D411D8F
:102B8000A09581F7B901842F9158880F9695879564
:102B900008950E945013880B990B08959F3F31F0C0
:102BA000915020F4879577956795B795880F911D7B
:102BB0009695879597F9089591505040660F771F25
:102BC000881FD2F7089597FB072E16F4009407D0BC
:102BD00077FD09D00E94191607FC05D03EF49095A8
:102BE00081959F4F0895709561957F4F0895A1E25B
:102BF0001A2EAA1BBB1BFD010DC0AA1FBB1FEE1F77
:102C0000FF1FA217B307E407F50720F0A21BB30BC1
:102C1000E40BF50B661F771F881F991F1A9469F73D
:102C200060957095809590959B01AC01BD01CF0199
:102C30000895AA1BBB1B51E107C0AA1FBB1FA61703
:102C4000B70710F0A61BB70B881F991F5A95A9F755
:102C500080959095BC01CD010895EE0FFF1F059062
:102C6000F491E02D09940F931F93CF93DF9382305B
:102C7000910510F482E090E0E091D203F091D3034B
:102C800030E020E0B0E0A0E0309799F42115310564
:102C900009F44AC0281B390B24303105D8F58A8144
:102CA0009B816115710589F1FB0193838283FE018C
:102CB00011C0408151810281138148175907E0F00A
:102CC0004817590799F4109761F012960C931297D0
:102CD00013961C933296CF01DF91CF911F910F91E4
:102CE00008950093D2031093D303F4CF2115310537
:102CF00051F04217530738F0A901DB019A01BD01D9
:102D0000DF01F801C1CFEF01F9CF9093D303809396
:102D1000D203CDCFFE01E20FF31F81939193225096
:102D2000310939832883D7CF2091D0033091D10343
:102D3000232B41F420910201309103013093D10300
:102D40002093D0032091000130910101211531051C
:102D500041F42DB73EB74091040150910501241B69
:102D6000350BE091D003F091D103E217F307A0F403
:102D70002E1B3F0B2817390778F0AC014E5F5F4FD1
:102D80002417350748F04E0F5F1F5093D10340932F
:102D9000D003819391939FCFF0E0E0E09CCFCF935D
:102DA000DF930097E9F0FC01329713821282A09121
:102DB000D203B091D303ED0130E020E01097A1F4ED
:102DC00020813181820F931F2091D0033091D10354
:102DD0002817390709F061C0F093D103E093D003BD
:102DE000DF91CF910895EA01CE17DF07E8F54A8118
:102DF0005B819E0141155105B1F7E901FB83EA832F
:102E000049915991C40FD51FEC17FD0761F48081DA
:102E100091810296840F951FE901998388838281AD
:102E200093819B838A83F0E0E0E012968D919C91E0
:102E300013970097B9F52D913C911197CD0102960A
:102E4000820F931F2091D0033091D10328173907A7
:102E500039F6309751F51092D3031092D203B09304
:102E6000D103A093D003BCCFD383C28340815181CF
:102E7000840F951FC817D90761F44E5F5F4F888193
:102E80009981480F591F518340838A819B81938385
:102E900082832115310509F0B0CFF093D303E0937D
:102EA000D2039ECFFD01DC01C0CF13821282D7CFA7
:102EB000B0E0A0E0EEE5F7E10C9434148C0100974B
:102EC00051F4CB010E9433168C01C801CDB7DEB797
:102ED000E0E10C945014FC01E60FF71F9C01225016
:102EE0003109E217F30708F49DC0D901CD91DC91B7
:102EF0001197C617D70798F0C530D10530F3CE012A
:102F000004978617970708F3C61BD70B2297C19320
:102F1000D1936D937C93CF010E94CF16D6CF5B01E6
:102F2000AC1ABD0A4C018C0E9D1EA091D203B0912B
:102F3000D303512C412CF12CE12C109731F58091C9
:102F4000D0039091D1038815990509F05CC046160D
:102F5000570608F058C08091000190910101009738
:102F600041F48DB79EB74091040150910501841B37
:102F7000950BE817F90708F055C0F093D103E093DB
:102F8000D003F90171836083A0CF8D919C9111973B
:102F900012966C90129713967C901397A815B9050A
:102FA00059F56C0142E0C40ED11CCA14DB0420F1B7
:102FB000AC014A195B09DA011296159780F062821A
:102FC000738251834083D9016D937C93E114F104A2
:102FD00071F0D7011396FC93EE93129776CF229659
:102FE0008C0F9D1FF90191838083F301EFCFF09344
:102FF000D303E093D20369CF4816590608F42C0195
:103000007D01D3019ACFCB010E9433167C0100973A
:1030100049F0AE01B8010E941518C8010E94CF16F0
:10302000870153CF10E000E050CFFB01DC0102C06C
:1030300001900D9241505040D8F70895FB01DC01FA
:1030400001900D920020E1F7089510E0CFEDD0E05F
:1030500004C0FE010E942D162196C03ED107C9F77B
:10306000F894FFCF0000D40380000000400014005B
:10307000540000000000AA010A013701F7016801AD
:1030800046015A01000000009E03710362056303BC
:103090006A0367036403000000008D060A016205ED
:1030A000B40400000000CD040A0162056303290591
:1030B0004105B5046E616E00696E66006F7666004C
:1030C0000D0A002C202000506F77203A0041542B2D
:1030D000434D47463D310041542B434D47533D221C
:1030E0002B393136323338363036373932220D000B
:107E0000112484B714BE81FFF0D085E080938100F7
:107E100082E08093C00088E18093C10086E0809377
:107E2000C20080E18093C4008EE0C9D0259A86E02C
:107E300020E33CEF91E0309385002093840096BBD3
:107E4000B09BFECF1D9AA8958150A9F7CC24DD24C4
:107E500088248394B5E0AB2EA1E19A2EF3E0BF2EE7
:107E6000A2D0813461F49FD0082FAFD0023811F036
:107E7000013811F484E001C083E08DD089C08234E0
:107E800011F484E103C0853419F485E0A6D080C0E4
:107E9000853579F488D0E82EFF2485D0082F10E0AE
:107EA000102F00270E291F29000F111F8ED06801E7
:107EB0006FC0863521F484E090D080E0DECF843638
:107EC00009F040C070D06FD0082F6DD080E0C81688
:107ED00080E7D80618F4F601B7BEE895C0E0D1E017
:107EE00062D089930C17E1F7F0E0CF16F0E7DF06D8
:107EF00018F0F601B7BEE89568D007B600FCFDCFD4
:107F0000A601A0E0B1E02C9130E011968C91119780
:107F100090E0982F8827822B932B1296FA010C0160
:107F200087BEE89511244E5F5F4FF1E0A038BF0790
:107F300051F7F601A7BEE89507B600FCFDCF97BE46
:107F4000E89526C08437B1F42ED02DD0F82E2BD052
:107F50003CD0F601EF2C8F010F5F1F4F84911BD097
:107F6000EA94F801C1F70894C11CD11CFA94CF0C13
:107F7000D11C0EC0853739F428D08EE10CD085E9AC
:107F80000AD08FE07ACF813511F488E018D01DD067
:107F900080E101D065CF982F8091C00085FFFCCF94
:107FA0009093C60008958091C00087FFFCCF809118
:107FB000C00084FD01C0A8958091C6000895E0E648
:107FC000F0E098E1908380830895EDDF803219F02E
:107FD00088E0F5DFFFCF84E1DECF1F93182FE3DFCA
:107FE0001150E9F7F2DF1F91089580E0E8DFEE27F6
:047FF000FF270994CA
:027FFE00040479
:00000001FF
